{
    "_format": "hh-sol-artifact-1",
    "contractName": "LofiClub",
    "sourceName": "contracts/loficlub.sol",
    "abi": [
        {
            "inputs": [],
            "stateMutability": "nonpayable",
            "type": "constructor"
        },
        {
            "inputs": [
                {
                    "internalType": "address",
                    "name": "sender",
                    "type": "address"
                },
                {
                    "internalType": "uint256",
                    "name": "tokenId",
                    "type": "uint256"
                },
                {
                    "internalType": "address",
                    "name": "owner",
                    "type": "address"
                }
            ],
            "name": "ERC721IncorrectOwner",
            "type": "error"
        },
        {
            "inputs": [
                {
                    "internalType": "address",
                    "name": "operator",
                    "type": "address"
                },
                {
                    "internalType": "uint256",
                    "name": "tokenId",
                    "type": "uint256"
                }
            ],
            "name": "ERC721InsufficientApproval",
            "type": "error"
        },
        {
            "inputs": [
                {
                    "internalType": "address",
                    "name": "approver",
                    "type": "address"
                }
            ],
            "name": "ERC721InvalidApprover",
            "type": "error"
        },
        {
            "inputs": [
                {
                    "internalType": "address",
                    "name": "operator",
                    "type": "address"
                }
            ],
            "name": "ERC721InvalidOperator",
            "type": "error"
        },
        {
            "inputs": [
                {
                    "internalType": "address",
                    "name": "owner",
                    "type": "address"
                }
            ],
            "name": "ERC721InvalidOwner",
            "type": "error"
        },
        {
            "inputs": [
                {
                    "internalType": "address",
                    "name": "receiver",
                    "type": "address"
                }
            ],
            "name": "ERC721InvalidReceiver",
            "type": "error"
        },
        {
            "inputs": [
                {
                    "internalType": "address",
                    "name": "sender",
                    "type": "address"
                }
            ],
            "name": "ERC721InvalidSender",
            "type": "error"
        },
        {
            "inputs": [
                {
                    "internalType": "uint256",
                    "name": "tokenId",
                    "type": "uint256"
                }
            ],
            "name": "ERC721NonexistentToken",
            "type": "error"
        },
        {
            "inputs": [
                {
                    "internalType": "address",
                    "name": "owner",
                    "type": "address"
                }
            ],
            "name": "OwnableInvalidOwner",
            "type": "error"
        },
        {
            "inputs": [
                {
                    "internalType": "address",
                    "name": "account",
                    "type": "address"
                }
            ],
            "name": "OwnableUnauthorizedAccount",
            "type": "error"
        },
        {
            "anonymous": false,
            "inputs": [
                {
                    "indexed": true,
                    "internalType": "address",
                    "name": "owner",
                    "type": "address"
                },
                {
                    "indexed": true,
                    "internalType": "address",
                    "name": "approved",
                    "type": "address"
                },
                {
                    "indexed": true,
                    "internalType": "uint256",
                    "name": "tokenId",
                    "type": "uint256"
                }
            ],
            "name": "Approval",
            "type": "event"
        },
        {
            "anonymous": false,
            "inputs": [
                {
                    "indexed": true,
                    "internalType": "address",
                    "name": "owner",
                    "type": "address"
                },
                {
                    "indexed": true,
                    "internalType": "address",
                    "name": "operator",
                    "type": "address"
                },
                {
                    "indexed": false,
                    "internalType": "bool",
                    "name": "approved",
                    "type": "bool"
                }
            ],
            "name": "ApprovalForAll",
            "type": "event"
        },
        {
            "anonymous": false,
            "inputs": [
                {
                    "indexed": true,
                    "internalType": "address",
                    "name": "previousOwner",
                    "type": "address"
                },
                {
                    "indexed": true,
                    "internalType": "address",
                    "name": "newOwner",
                    "type": "address"
                }
            ],
            "name": "OwnershipTransferred",
            "type": "event"
        },
        {
            "anonymous": false,
            "inputs": [
                {
                    "indexed": true,
                    "internalType": "address",
                    "name": "from",
                    "type": "address"
                },
                {
                    "indexed": true,
                    "internalType": "address",
                    "name": "to",
                    "type": "address"
                },
                {
                    "indexed": true,
                    "internalType": "uint256",
                    "name": "tokenId",
                    "type": "uint256"
                }
            ],
            "name": "Transfer",
            "type": "event"
        },
        {
            "inputs": [
                {
                    "internalType": "address",
                    "name": "to",
                    "type": "address"
                },
                {
                    "internalType": "uint256",
                    "name": "tokenId",
                    "type": "uint256"
                }
            ],
            "name": "approve",
            "outputs": [],
            "stateMutability": "nonpayable",
            "type": "function"
        },
        {
            "inputs": [
                {
                    "internalType": "address",
                    "name": "owner",
                    "type": "address"
                }
            ],
            "name": "balanceOf",
            "outputs": [
                {
                    "internalType": "uint256",
                    "name": "",
                    "type": "uint256"
                }
            ],
            "stateMutability": "view",
            "type": "function"
        },
        {
            "inputs": [],
            "name": "baseTokenUri",
            "outputs": [
                {
                    "internalType": "string",
                    "name": "",
                    "type": "string"
                }
            ],
            "stateMutability": "view",
            "type": "function"
        },
        {
            "inputs": [
                {
                    "internalType": "uint256",
                    "name": "tokenId",
                    "type": "uint256"
                }
            ],
            "name": "getApproved",
            "outputs": [
                {
                    "internalType": "address",
                    "name": "",
                    "type": "address"
                }
            ],
            "stateMutability": "view",
            "type": "function"
        },
        {
            "inputs": [
                {
                    "internalType": "address",
                    "name": "owner",
                    "type": "address"
                },
                {
                    "internalType": "address",
                    "name": "operator",
                    "type": "address"
                }
            ],
            "name": "isApprovedForAll",
            "outputs": [
                {
                    "internalType": "bool",
                    "name": "",
                    "type": "bool"
                }
            ],
            "stateMutability": "view",
            "type": "function"
        },
        {
            "inputs": [],
            "name": "isPublicMintEnabled",
            "outputs": [
                {
                    "internalType": "bool",
                    "name": "",
                    "type": "bool"
                }
            ],
            "stateMutability": "view",
            "type": "function"
        },
        {
            "inputs": [],
            "name": "maxPerWallet",
            "outputs": [
                {
                    "internalType": "uint256",
                    "name": "",
                    "type": "uint256"
                }
            ],
            "stateMutability": "view",
            "type": "function"
        },
        {
            "inputs": [],
            "name": "maxSupply",
            "outputs": [
                {
                    "internalType": "uint256",
                    "name": "",
                    "type": "uint256"
                }
            ],
            "stateMutability": "view",
            "type": "function"
        },
        {
            "inputs": [],
            "name": "mint",
            "outputs": [],
            "stateMutability": "payable",
            "type": "function"
        },
        {
            "inputs": [],
            "name": "mintPrice",
            "outputs": [
                {
                    "internalType": "uint256",
                    "name": "",
                    "type": "uint256"
                }
            ],
            "stateMutability": "view",
            "type": "function"
        },
        {
            "inputs": [],
            "name": "name",
            "outputs": [
                {
                    "internalType": "string",
                    "name": "",
                    "type": "string"
                }
            ],
            "stateMutability": "view",
            "type": "function"
        },
        {
            "inputs": [],
            "name": "owner",
            "outputs": [
                {
                    "internalType": "address",
                    "name": "",
                    "type": "address"
                }
            ],
            "stateMutability": "view",
            "type": "function"
        },
        {
            "inputs": [
                {
                    "internalType": "uint256",
                    "name": "tokenId",
                    "type": "uint256"
                }
            ],
            "name": "ownerOf",
            "outputs": [
                {
                    "internalType": "address",
                    "name": "",
                    "type": "address"
                }
            ],
            "stateMutability": "view",
            "type": "function"
        },
        {
            "inputs": [],
            "name": "renounceOwnership",
            "outputs": [],
            "stateMutability": "nonpayable",
            "type": "function"
        },
        {
            "inputs": [
                {
                    "internalType": "address",
                    "name": "from",
                    "type": "address"
                },
                {
                    "internalType": "address",
                    "name": "to",
                    "type": "address"
                },
                {
                    "internalType": "uint256",
                    "name": "tokenId",
                    "type": "uint256"
                }
            ],
            "name": "safeTransferFrom",
            "outputs": [],
            "stateMutability": "nonpayable",
            "type": "function"
        },
        {
            "inputs": [
                {
                    "internalType": "address",
                    "name": "from",
                    "type": "address"
                },
                {
                    "internalType": "address",
                    "name": "to",
                    "type": "address"
                },
                {
                    "internalType": "uint256",
                    "name": "tokenId",
                    "type": "uint256"
                },
                {
                    "internalType": "bytes",
                    "name": "data",
                    "type": "bytes"
                }
            ],
            "name": "safeTransferFrom",
            "outputs": [],
            "stateMutability": "nonpayable",
            "type": "function"
        },
        {
            "inputs": [
                {
                    "internalType": "address",
                    "name": "operator",
                    "type": "address"
                },
                {
                    "internalType": "bool",
                    "name": "approved",
                    "type": "bool"
                }
            ],
            "name": "setApprovalForAll",
            "outputs": [],
            "stateMutability": "nonpayable",
            "type": "function"
        },
        {
            "inputs": [
                {
                    "internalType": "string",
                    "name": "_baseTokenUri",
                    "type": "string"
                }
            ],
            "name": "setBaseTokenUri",
            "outputs": [],
            "stateMutability": "nonpayable",
            "type": "function"
        },
        {
            "inputs": [
                {
                    "internalType": "bool",
                    "name": "_isPublicMintEnabled",
                    "type": "bool"
                }
            ],
            "name": "setIsPublicMintEnabled",
            "outputs": [],
            "stateMutability": "nonpayable",
            "type": "function"
        },
        {
            "inputs": [
                {
                    "internalType": "address payable",
                    "name": "_withdrawWallet",
                    "type": "address"
                }
            ],
            "name": "setWithdrawWallet",
            "outputs": [],
            "stateMutability": "nonpayable",
            "type": "function"
        },
        {
            "inputs": [
                {
                    "internalType": "bytes4",
                    "name": "interfaceId",
                    "type": "bytes4"
                }
            ],
            "name": "supportsInterface",
            "outputs": [
                {
                    "internalType": "bool",
                    "name": "",
                    "type": "bool"
                }
            ],
            "stateMutability": "view",
            "type": "function"
        },
        {
            "inputs": [],
            "name": "symbol",
            "outputs": [
                {
                    "internalType": "string",
                    "name": "",
                    "type": "string"
                }
            ],
            "stateMutability": "view",
            "type": "function"
        },
        {
            "inputs": [
                {
                    "internalType": "uint256",
                    "name": "_tokenId",
                    "type": "uint256"
                }
            ],
            "name": "tokenURI",
            "outputs": [
                {
                    "internalType": "string",
                    "name": "",
                    "type": "string"
                }
            ],
            "stateMutability": "view",
            "type": "function"
        },
        {
            "inputs": [],
            "name": "totalSupply",
            "outputs": [
                {
                    "internalType": "uint256",
                    "name": "",
                    "type": "uint256"
                }
            ],
            "stateMutability": "view",
            "type": "function"
        },
        {
            "inputs": [
                {
                    "internalType": "address",
                    "name": "from",
                    "type": "address"
                },
                {
                    "internalType": "address",
                    "name": "to",
                    "type": "address"
                },
                {
                    "internalType": "uint256",
                    "name": "tokenId",
                    "type": "uint256"
                }
            ],
            "name": "transferFrom",
            "outputs": [],
            "stateMutability": "nonpayable",
            "type": "function"
        },
        {
            "inputs": [
                {
                    "internalType": "address",
                    "name": "newOwner",
                    "type": "address"
                }
            ],
            "name": "transferOwnership",
            "outputs": [],
            "stateMutability": "nonpayable",
            "type": "function"
        },
        {
            "inputs": [
                {
                    "internalType": "address",
                    "name": "",
                    "type": "address"
                }
            ],
            "name": "walletMints",
            "outputs": [
                {
                    "internalType": "uint256",
                    "name": "",
                    "type": "uint256"
                }
            ],
            "stateMutability": "view",
            "type": "function"
        },
        {
            "inputs": [],
            "name": "withdraw",
            "outputs": [],
            "stateMutability": "nonpayable",
            "type": "function"
        },
        {
            "inputs": [],
            "name": "withdrawWallet",
            "outputs": [
                {
                    "internalType": "address payable",
                    "name": "",
                    "type": "address"
                }
            ],
            "stateMutability": "view",
            "type": "function"
        }
    ],
    "bytecode": "0x60806040523480156200001157600080fd5b50336040518060400160405280600881526020017f4c6f6669436c75620000000000000000000000000000000000000000000000008152506040518060400160405280600881526020017f4c4f4649434c5542000000000000000000000000000000000000000000000000815250816000908162000090919062000499565b508060019081620000a2919062000499565b505050600073ffffffffffffffffffffffffffffffffffffffff168173ffffffffffffffffffffffffffffffffffffffff16036200011a5760006040517f1e4fbdf7000000000000000000000000000000000000000000000000000000008152600401620001119190620005c5565b60405180910390fd5b6200012b816200015960201b60201c565b5066038d7ea4c680006007819055506103e860088190555060036009819055506000600a81905550620005e2565b6000600660009054906101000a900473ffffffffffffffffffffffffffffffffffffffff16905081600660006101000a81548173ffffffffffffffffffffffffffffffffffffffff021916908373ffffffffffffffffffffffffffffffffffffffff1602179055508173ffffffffffffffffffffffffffffffffffffffff168173ffffffffffffffffffffffffffffffffffffffff167f8be0079c531659141344cd1fd0a4f28419497f9722a3daafe3b4186f6b6457e060405160405180910390a35050565b600081519050919050565b7f4e487b7100000000000000000000000000000000000000000000000000000000600052604160045260246000fd5b7f4e487b7100000000000000000000000000000000000000000000000000000000600052602260045260246000fd5b60006002820490506001821680620002a157607f821691505b602082108103620002b757620002b662000259565b5b50919050565b60008190508160005260206000209050919050565b60006020601f8301049050919050565b600082821b905092915050565b600060088302620003217fffffffffffffffffffffffffffffffffffffffffffffffffffffffffffffffff82620002e2565b6200032d8683620002e2565b95508019841693508086168417925050509392505050565b6000819050919050565b6000819050919050565b60006200037a620003746200036e8462000345565b6200034f565b62000345565b9050919050565b6000819050919050565b620003968362000359565b620003ae620003a58262000381565b848454620002ef565b825550505050565b600090565b620003c5620003b6565b620003d28184846200038b565b505050565b5b81811015620003fa57620003ee600082620003bb565b600181019050620003d8565b5050565b601f82111562000449576200041381620002bd565b6200041e84620002d2565b810160208510156200042e578190505b620004466200043d85620002d2565b830182620003d7565b50505b505050565b600082821c905092915050565b60006200046e600019846008026200044e565b1980831691505092915050565b60006200048983836200045b565b9150826002028217905092915050565b620004a4826200021f565b67ffffffffffffffff811115620004c057620004bf6200022a565b5b620004cc825462000288565b620004d9828285620003fe565b600060209050601f831160018114620005115760008415620004fc578287015190505b6200050885826200047b565b86555062000578565b601f1984166200052186620002bd565b60005b828110156200054b5784890151825560018201915060208501945060208101905062000524565b868310156200056b578489015162000567601f8916826200045b565b8355505b6001600288020188555050505b505050505050565b600073ffffffffffffffffffffffffffffffffffffffff82169050919050565b6000620005ad8262000580565b9050919050565b620005bf81620005a0565b82525050565b6000602082019050620005dc6000830184620005b4565b92915050565b61304680620005f26000396000f3fe6080604052600436106101c25760003560e01c806370a08231116100f757806395d89b4111610095578063d5abeb0111610064578063d5abeb01146105fb578063e985e9c514610626578063f0293fd314610663578063f2fde38b146106a0576101c2565b806395d89b4114610541578063a22cb4651461056c578063b88d4fde14610595578063c87b56dd146105be576101c2565b806385d178f4116100d157806385d178f4146104995780638da5cb5b146104c45780639373f432146104ef57806395652cfa14610518576101c2565b806370a082311461041a578063715018a6146104575780637a0101a21461046e576101c2565b80632373ac221161016457806342842e0e1161013e57806342842e0e1461035e578063453c2310146103875780636352211e146103b25780636817c76c146103ef576101c2565b80632373ac22146102f557806323b872dd1461031e5780633ccfd60b14610347576101c2565b8063081812fc116101a0578063081812fc1461025a578063095ea7b3146102975780631249c58b146102c057806318160ddd146102ca576101c2565b80630116bc2d146101c757806301ffc9a7146101f257806306fdde031461022f575b600080fd5b3480156101d357600080fd5b506101dc6106c9565b6040516101e9919061203e565b60405180910390f35b3480156101fe57600080fd5b50610219600480360381019061021491906120c5565b6106dc565b604051610226919061203e565b60405180910390f35b34801561023b57600080fd5b506102446107be565b6040516102519190612182565b60405180910390f35b34801561026657600080fd5b50610281600480360381019061027c91906121da565b610850565b60405161028e9190612248565b60405180910390f35b3480156102a357600080fd5b506102be60048036038101906102b9919061228f565b61086c565b005b6102c8610882565b005b3480156102d657600080fd5b506102df610a70565b6040516102ec91906122de565b60405180910390f35b34801561030157600080fd5b5061031c60048036038101906103179190612325565b610a76565b005b34801561032a57600080fd5b5061034560048036038101906103409190612352565b610a9b565b005b34801561035357600080fd5b5061035c610b9d565b005b34801561036a57600080fd5b5061038560048036038101906103809190612352565b610c76565b005b34801561039357600080fd5b5061039c610c96565b6040516103a991906122de565b60405180910390f35b3480156103be57600080fd5b506103d960048036038101906103d491906121da565b610c9c565b6040516103e69190612248565b60405180910390f35b3480156103fb57600080fd5b50610404610cae565b60405161041191906122de565b60405180910390f35b34801561042657600080fd5b50610441600480360381019061043c91906123a5565b610cb4565b60405161044e91906122de565b60405180910390f35b34801561046357600080fd5b5061046c610d6e565b005b34801561047a57600080fd5b50610483610d82565b6040516104909190612182565b60405180910390f35b3480156104a557600080fd5b506104ae610e10565b6040516104bb91906123f3565b60405180910390f35b3480156104d057600080fd5b506104d9610e36565b6040516104e69190612248565b60405180910390f35b3480156104fb57600080fd5b506105166004803603810190610511919061243a565b610e60565b005b34801561052457600080fd5b5061053f600480360381019061053a91906124cc565b610eac565b005b34801561054d57600080fd5b50610556610eca565b6040516105639190612182565b60405180910390f35b34801561057857600080fd5b50610593600480360381019061058e9190612519565b610f5c565b005b3480156105a157600080fd5b506105bc60048036038101906105b79190612689565b610f72565b005b3480156105ca57600080fd5b506105e560048036038101906105e091906121da565b610f8f565b6040516105f29190612182565b60405180910390f35b34801561060757600080fd5b5061061061103a565b60405161061d91906122de565b60405180910390f35b34801561063257600080fd5b5061064d6004803603810190610648919061270c565b611040565b60405161065a919061203e565b60405180910390f35b34801561066f57600080fd5b5061068a600480360381019061068591906123a5565b6110d4565b60405161069791906122de565b60405180910390f35b3480156106ac57600080fd5b506106c760048036038101906106c291906123a5565b6110ec565b005b600b60009054906101000a900460ff1681565b60007f80ac58cd000000000000000000000000000000000000000000000000000000007bffffffffffffffffffffffffffffffffffffffffffffffffffffffff1916827bffffffffffffffffffffffffffffffffffffffffffffffffffffffff191614806107a757507f5b5e139f000000000000000000000000000000000000000000000000000000007bffffffffffffffffffffffffffffffffffffffffffffffffffffffff1916827bffffffffffffffffffffffffffffffffffffffffffffffffffffffff1916145b806107b757506107b682611172565b5b9050919050565b6060600080546107cd9061277b565b80601f01602080910402602001604051908101604052809291908181526020018280546107f99061277b565b80156108465780601f1061081b57610100808354040283529160200191610846565b820191906000526020600020905b81548152906001019060200180831161082957829003601f168201915b5050505050905090565b600061085b826111dc565b5061086582611264565b9050919050565b61087e82826108796112a1565b6112a9565b5050565b600b60009054906101000a900460ff166108d1576040517f08c379a00000000000000000000000000000000000000000000000000000000081526004016108c8906127f8565b60405180910390fd5b600854600a5410610917576040517f08c379a000000000000000000000000000000000000000000000000000000000815260040161090e90612864565b60405180910390fd5b600954600e60003373ffffffffffffffffffffffffffffffffffffffff1673ffffffffffffffffffffffffffffffffffffffff168152602001908152602001600020541061099a576040517f08c379a0000000000000000000000000000000000000000000000000000000008152600401610991906128d0565b60405180910390fd5b6007543410156109df576040517f08c379a00000000000000000000000000000000000000000000000000000000081526004016109d69061293c565b60405180910390fd5b60006001600a546109f0919061298b565b90506001600a6000828254610a05919061298b565b92505081905550610a1633826112bb565b6001600e60003373ffffffffffffffffffffffffffffffffffffffff1673ffffffffffffffffffffffffffffffffffffffff1681526020019081526020016000206000828254610a66919061298b565b9250508190555050565b600a5481565b610a7e6112d9565b80600b60006101000a81548160ff02191690831515021790555050565b600073ffffffffffffffffffffffffffffffffffffffff168273ffffffffffffffffffffffffffffffffffffffff1603610b0d5760006040517f64a0ae92000000000000000000000000000000000000000000000000000000008152600401610b049190612248565b60405180910390fd5b6000610b218383610b1c6112a1565b611360565b90508373ffffffffffffffffffffffffffffffffffffffff168173ffffffffffffffffffffffffffffffffffffffff1614610b97578382826040517f64283d7b000000000000000000000000000000000000000000000000000000008152600401610b8e939291906129bf565b60405180910390fd5b50505050565b610ba56112d9565b6000600d60009054906101000a900473ffffffffffffffffffffffffffffffffffffffff1673ffffffffffffffffffffffffffffffffffffffff1647604051610bed90612a27565b60006040518083038185875af1925050503d8060008114610c2a576040519150601f19603f3d011682016040523d82523d6000602084013e610c2f565b606091505b5050905080610c73576040517f08c379a0000000000000000000000000000000000000000000000000000000008152600401610c6a90612a88565b60405180910390fd5b50565b610c9183838360405180602001604052806000815250610f72565b505050565b60095481565b6000610ca7826111dc565b9050919050565b60075481565b60008073ffffffffffffffffffffffffffffffffffffffff168273ffffffffffffffffffffffffffffffffffffffff1603610d275760006040517f89c62b64000000000000000000000000000000000000000000000000000000008152600401610d1e9190612248565b60405180910390fd5b600360008373ffffffffffffffffffffffffffffffffffffffff1673ffffffffffffffffffffffffffffffffffffffff168152602001908152602001600020549050919050565b610d766112d9565b610d80600061157a565b565b600c8054610d8f9061277b565b80601f0160208091040260200160405190810160405280929190818152602001828054610dbb9061277b565b8015610e085780601f10610ddd57610100808354040283529160200191610e08565b820191906000526020600020905b815481529060010190602001808311610deb57829003601f168201915b505050505081565b600d60009054906101000a900473ffffffffffffffffffffffffffffffffffffffff1681565b6000600660009054906101000a900473ffffffffffffffffffffffffffffffffffffffff16905090565b610e686112d9565b80600d60006101000a81548173ffffffffffffffffffffffffffffffffffffffff021916908373ffffffffffffffffffffffffffffffffffffffff16021790555050565b610eb46112d9565b8181600c9182610ec5929190612c5f565b505050565b606060018054610ed99061277b565b80601f0160208091040260200160405190810160405280929190818152602001828054610f059061277b565b8015610f525780601f10610f2757610100808354040283529160200191610f52565b820191906000526020600020905b815481529060010190602001808311610f3557829003601f168201915b5050505050905090565b610f6e610f676112a1565b8383611640565b5050565b610f7d848484610a9b565b610f89848484846117af565b50505050565b6060600073ffffffffffffffffffffffffffffffffffffffff16610fb283611966565b73ffffffffffffffffffffffffffffffffffffffff1603611008576040517f08c379a0000000000000000000000000000000000000000000000000000000008152600401610fff90612d7b565b60405180910390fd5b600c611013836119a3565b604051602001611024929190612ea6565b6040516020818303038152906040529050919050565b60085481565b6000600560008473ffffffffffffffffffffffffffffffffffffffff1673ffffffffffffffffffffffffffffffffffffffff16815260200190815260200160002060008373ffffffffffffffffffffffffffffffffffffffff1673ffffffffffffffffffffffffffffffffffffffff16815260200190815260200160002060009054906101000a900460ff16905092915050565b600e6020528060005260406000206000915090505481565b6110f46112d9565b600073ffffffffffffffffffffffffffffffffffffffff168173ffffffffffffffffffffffffffffffffffffffff16036111665760006040517f1e4fbdf700000000000000000000000000000000000000000000000000000000815260040161115d9190612248565b60405180910390fd5b61116f8161157a565b50565b60007f01ffc9a7000000000000000000000000000000000000000000000000000000007bffffffffffffffffffffffffffffffffffffffffffffffffffffffff1916827bffffffffffffffffffffffffffffffffffffffffffffffffffffffff1916149050919050565b6000806111e883611966565b9050600073ffffffffffffffffffffffffffffffffffffffff168173ffffffffffffffffffffffffffffffffffffffff160361125b57826040517f7e27328900000000000000000000000000000000000000000000000000000000815260040161125291906122de565b60405180910390fd5b80915050919050565b60006004600083815260200190815260200160002060009054906101000a900473ffffffffffffffffffffffffffffffffffffffff169050919050565b600033905090565b6112b68383836001611a71565b505050565b6112d5828260405180602001604052806000815250611c36565b5050565b6112e16112a1565b73ffffffffffffffffffffffffffffffffffffffff166112ff610e36565b73ffffffffffffffffffffffffffffffffffffffff161461135e576113226112a1565b6040517f118cdaa70000000000000000000000000000000000000000000000000000000081526004016113559190612248565b60405180910390fd5b565b60008061136c84611966565b9050600073ffffffffffffffffffffffffffffffffffffffff168373ffffffffffffffffffffffffffffffffffffffff16146113ae576113ad818486611c52565b5b600073ffffffffffffffffffffffffffffffffffffffff168173ffffffffffffffffffffffffffffffffffffffff161461143f576113f0600085600080611a71565b6001600360008373ffffffffffffffffffffffffffffffffffffffff1673ffffffffffffffffffffffffffffffffffffffff168152602001908152602001600020600082825403925050819055505b600073ffffffffffffffffffffffffffffffffffffffff168573ffffffffffffffffffffffffffffffffffffffff16146114c2576001600360008773ffffffffffffffffffffffffffffffffffffffff1673ffffffffffffffffffffffffffffffffffffffff168152602001908152602001600020600082825401925050819055505b846002600086815260200190815260200160002060006101000a81548173ffffffffffffffffffffffffffffffffffffffff021916908373ffffffffffffffffffffffffffffffffffffffff160217905550838573ffffffffffffffffffffffffffffffffffffffff168273ffffffffffffffffffffffffffffffffffffffff167fddf252ad1be2c89b69c2b068fc378daa952ba7f163c4a11628f55a4df523b3ef60405160405180910390a4809150509392505050565b6000600660009054906101000a900473ffffffffffffffffffffffffffffffffffffffff16905081600660006101000a81548173ffffffffffffffffffffffffffffffffffffffff021916908373ffffffffffffffffffffffffffffffffffffffff1602179055508173ffffffffffffffffffffffffffffffffffffffff168173ffffffffffffffffffffffffffffffffffffffff167f8be0079c531659141344cd1fd0a4f28419497f9722a3daafe3b4186f6b6457e060405160405180910390a35050565b600073ffffffffffffffffffffffffffffffffffffffff168273ffffffffffffffffffffffffffffffffffffffff16036116b157816040517f5b08ba180000000000000000000000000000000000000000000000000000000081526004016116a89190612248565b60405180910390fd5b80600560008573ffffffffffffffffffffffffffffffffffffffff1673ffffffffffffffffffffffffffffffffffffffff16815260200190815260200160002060008473ffffffffffffffffffffffffffffffffffffffff1673ffffffffffffffffffffffffffffffffffffffff16815260200190815260200160002060006101000a81548160ff0219169083151502179055508173ffffffffffffffffffffffffffffffffffffffff168373ffffffffffffffffffffffffffffffffffffffff167f17307eab39ab6107e8899845ad3d59bd9653f200f220920489ca2b5937696c31836040516117a2919061203e565b60405180910390a3505050565b60008373ffffffffffffffffffffffffffffffffffffffff163b1115611960578273ffffffffffffffffffffffffffffffffffffffff1663150b7a026117f36112a1565b8685856040518563ffffffff1660e01b81526004016118159493929190612f2a565b6020604051808303816000875af192505050801561185157506040513d601f19601f8201168201806040525081019061184e9190612f8b565b60015b6118d5573d8060008114611881576040519150601f19603f3d011682016040523d82523d6000602084013e611886565b606091505b5060008151036118cd57836040517f64a0ae920000000000000000000000000000000000000000000000000000000081526004016118c49190612248565b60405180910390fd5b805181602001fd5b63150b7a0260e01b7bffffffffffffffffffffffffffffffffffffffffffffffffffffffff1916817bffffffffffffffffffffffffffffffffffffffffffffffffffffffff19161461195e57836040517f64a0ae920000000000000000000000000000000000000000000000000000000081526004016119559190612248565b60405180910390fd5b505b50505050565b60006002600083815260200190815260200160002060009054906101000a900473ffffffffffffffffffffffffffffffffffffffff169050919050565b6060600060016119b284611d16565b01905060008167ffffffffffffffff8111156119d1576119d061255e565b5b6040519080825280601f01601f191660200182016040528015611a035781602001600182028036833780820191505090505b509050600082602001820190505b600115611a66578080600190039150507f3031323334353637383961626364656600000000000000000000000000000000600a86061a8153600a8581611a5a57611a59612fb8565b5b04945060008503611a11575b819350505050919050565b8080611aaa5750600073ffffffffffffffffffffffffffffffffffffffff168273ffffffffffffffffffffffffffffffffffffffff1614155b15611bde576000611aba846111dc565b9050600073ffffffffffffffffffffffffffffffffffffffff168373ffffffffffffffffffffffffffffffffffffffff1614158015611b2557508273ffffffffffffffffffffffffffffffffffffffff168173ffffffffffffffffffffffffffffffffffffffff1614155b8015611b385750611b368184611040565b155b15611b7a57826040517fa9fbf51f000000000000000000000000000000000000000000000000000000008152600401611b719190612248565b60405180910390fd5b8115611bdc57838573ffffffffffffffffffffffffffffffffffffffff168273ffffffffffffffffffffffffffffffffffffffff167f8c5be1e5ebec7d5bd14f71427d1e84f3dd0314c0f7b2291e5b200ac8c7c3b92560405160405180910390a45b505b836004600085815260200190815260200160002060006101000a81548173ffffffffffffffffffffffffffffffffffffffff021916908373ffffffffffffffffffffffffffffffffffffffff16021790555050505050565b611c408383611e69565b611c4d60008484846117af565b505050565b611c5d838383611f62565b611d1157600073ffffffffffffffffffffffffffffffffffffffff168373ffffffffffffffffffffffffffffffffffffffff1603611cd257806040517f7e273289000000000000000000000000000000000000000000000000000000008152600401611cc991906122de565b60405180910390fd5b81816040517f177e802f000000000000000000000000000000000000000000000000000000008152600401611d08929190612fe7565b60405180910390fd5b505050565b600080600090507a184f03e93ff9f4daa797ed6e38ed64bf6a1f0100000000000000008310611d74577a184f03e93ff9f4daa797ed6e38ed64bf6a1f0100000000000000008381611d6a57611d69612fb8565b5b0492506040810190505b6d04ee2d6d415b85acef81000000008310611db1576d04ee2d6d415b85acef81000000008381611da757611da6612fb8565b5b0492506020810190505b662386f26fc100008310611de057662386f26fc100008381611dd657611dd5612fb8565b5b0492506010810190505b6305f5e1008310611e09576305f5e1008381611dff57611dfe612fb8565b5b0492506008810190505b6127108310611e2e576127108381611e2457611e23612fb8565b5b0492506004810190505b60648310611e515760648381611e4757611e46612fb8565b5b0492506002810190505b600a8310611e60576001810190505b80915050919050565b600073ffffffffffffffffffffffffffffffffffffffff168273ffffffffffffffffffffffffffffffffffffffff1603611edb5760006040517f64a0ae92000000000000000000000000000000000000000000000000000000008152600401611ed29190612248565b60405180910390fd5b6000611ee983836000611360565b9050600073ffffffffffffffffffffffffffffffffffffffff168173ffffffffffffffffffffffffffffffffffffffff1614611f5d5760006040517f73c6ac6e000000000000000000000000000000000000000000000000000000008152600401611f549190612248565b60405180910390fd5b505050565b60008073ffffffffffffffffffffffffffffffffffffffff168373ffffffffffffffffffffffffffffffffffffffff161415801561201a57508273ffffffffffffffffffffffffffffffffffffffff168473ffffffffffffffffffffffffffffffffffffffff161480611fdb5750611fda8484611040565b5b8061201957508273ffffffffffffffffffffffffffffffffffffffff1661200183611264565b73ffffffffffffffffffffffffffffffffffffffff16145b5b90509392505050565b60008115159050919050565b61203881612023565b82525050565b6000602082019050612053600083018461202f565b92915050565b6000604051905090565b600080fd5b600080fd5b60007fffffffff0000000000000000000000000000000000000000000000000000000082169050919050565b6120a28161206d565b81146120ad57600080fd5b50565b6000813590506120bf81612099565b92915050565b6000602082840312156120db576120da612063565b5b60006120e9848285016120b0565b91505092915050565b600081519050919050565b600082825260208201905092915050565b60005b8381101561212c578082015181840152602081019050612111565b60008484015250505050565b6000601f19601f8301169050919050565b6000612154826120f2565b61215e81856120fd565b935061216e81856020860161210e565b61217781612138565b840191505092915050565b6000602082019050818103600083015261219c8184612149565b905092915050565b6000819050919050565b6121b7816121a4565b81146121c257600080fd5b50565b6000813590506121d4816121ae565b92915050565b6000602082840312156121f0576121ef612063565b5b60006121fe848285016121c5565b91505092915050565b600073ffffffffffffffffffffffffffffffffffffffff82169050919050565b600061223282612207565b9050919050565b61224281612227565b82525050565b600060208201905061225d6000830184612239565b92915050565b61226c81612227565b811461227757600080fd5b50565b60008135905061228981612263565b92915050565b600080604083850312156122a6576122a5612063565b5b60006122b48582860161227a565b92505060206122c5858286016121c5565b9150509250929050565b6122d8816121a4565b82525050565b60006020820190506122f360008301846122cf565b92915050565b61230281612023565b811461230d57600080fd5b50565b60008135905061231f816122f9565b92915050565b60006020828403121561233b5761233a612063565b5b600061234984828501612310565b91505092915050565b60008060006060848603121561236b5761236a612063565b5b60006123798682870161227a565b935050602061238a8682870161227a565b925050604061239b868287016121c5565b9150509250925092565b6000602082840312156123bb576123ba612063565b5b60006123c98482850161227a565b91505092915050565b60006123dd82612207565b9050919050565b6123ed816123d2565b82525050565b600060208201905061240860008301846123e4565b92915050565b612417816123d2565b811461242257600080fd5b50565b6000813590506124348161240e565b92915050565b6000602082840312156124505761244f612063565b5b600061245e84828501612425565b91505092915050565b600080fd5b600080fd5b600080fd5b60008083601f84011261248c5761248b612467565b5b8235905067ffffffffffffffff8111156124a9576124a861246c565b5b6020830191508360018202830111156124c5576124c4612471565b5b9250929050565b600080602083850312156124e3576124e2612063565b5b600083013567ffffffffffffffff81111561250157612500612068565b5b61250d85828601612476565b92509250509250929050565b600080604083850312156125305761252f612063565b5b600061253e8582860161227a565b925050602061254f85828601612310565b9150509250929050565b600080fd5b7f4e487b7100000000000000000000000000000000000000000000000000000000600052604160045260246000fd5b61259682612138565b810181811067ffffffffffffffff821117156125b5576125b461255e565b5b80604052505050565b60006125c8612059565b90506125d4828261258d565b919050565b600067ffffffffffffffff8211156125f4576125f361255e565b5b6125fd82612138565b9050602081019050919050565b82818337600083830152505050565b600061262c612627846125d9565b6125be565b90508281526020810184848401111561264857612647612559565b5b61265384828561260a565b509392505050565b600082601f8301126126705761266f612467565b5b8135612680848260208601612619565b91505092915050565b600080600080608085870312156126a3576126a2612063565b5b60006126b18782880161227a565b94505060206126c28782880161227a565b93505060406126d3878288016121c5565b925050606085013567ffffffffffffffff8111156126f4576126f3612068565b5b6127008782880161265b565b91505092959194509250565b6000806040838503121561272357612722612063565b5b60006127318582860161227a565b92505060206127428582860161227a565b9150509250929050565b7f4e487b7100000000000000000000000000000000000000000000000000000000600052602260045260246000fd5b6000600282049050600182168061279357607f821691505b6020821081036127a6576127a561274c565b5b50919050565b7f4d696e74696e67206973206e6f7420656e61626c656400000000000000000000600082015250565b60006127e26016836120fd565b91506127ed826127ac565b602082019050919050565b60006020820190508181036000830152612811816127d5565b9050919050565b7f4d617820737570706c7920726561636865640000000000000000000000000000600082015250565b600061284e6012836120fd565b915061285982612818565b602082019050919050565b6000602082019050818103600083015261287d81612841565b9050919050565b7f4d6178207065722077616c6c6574207265616368656400000000000000000000600082015250565b60006128ba6016836120fd565b91506128c582612884565b602082019050919050565b600060208201905081810360008301526128e9816128ad565b9050919050565b7f496e73756666696369656e742066756e64732073656e74000000000000000000600082015250565b60006129266017836120fd565b9150612931826128f0565b602082019050919050565b6000602082019050818103600083015261295581612919565b9050919050565b7f4e487b7100000000000000000000000000000000000000000000000000000000600052601160045260246000fd5b6000612996826121a4565b91506129a1836121a4565b92508282019050808211156129b9576129b861295c565b5b92915050565b60006060820190506129d46000830186612239565b6129e160208301856122cf565b6129ee6040830184612239565b949350505050565b600081905092915050565b50565b6000612a116000836129f6565b9150612a1c82612a01565b600082019050919050565b6000612a3282612a04565b9150819050919050565b7f5769746864726177206661696c65640000000000000000000000000000000000600082015250565b6000612a72600f836120fd565b9150612a7d82612a3c565b602082019050919050565b60006020820190508181036000830152612aa181612a65565b9050919050565b600082905092915050565b60008190508160005260206000209050919050565b60006020601f8301049050919050565b600082821b905092915050565b600060088302612b157fffffffffffffffffffffffffffffffffffffffffffffffffffffffffffffffff82612ad8565b612b1f8683612ad8565b95508019841693508086168417925050509392505050565b6000819050919050565b6000612b5c612b57612b52846121a4565b612b37565b6121a4565b9050919050565b6000819050919050565b612b7683612b41565b612b8a612b8282612b63565b848454612ae5565b825550505050565b600090565b612b9f612b92565b612baa818484612b6d565b505050565b5b81811015612bce57612bc3600082612b97565b600181019050612bb0565b5050565b601f821115612c1357612be481612ab3565b612bed84612ac8565b81016020851015612bfc578190505b612c10612c0885612ac8565b830182612baf565b50505b505050565b600082821c905092915050565b6000612c3660001984600802612c18565b1980831691505092915050565b6000612c4f8383612c25565b9150826002028217905092915050565b612c698383612aa8565b67ffffffffffffffff811115612c8257612c8161255e565b5b612c8c825461277b565b612c97828285612bd2565b6000601f831160018114612cc65760008415612cb4578287013590505b612cbe8582612c43565b865550612d26565b601f198416612cd486612ab3565b60005b82811015612cfc57848901358255600182019150602085019450602081019050612cd7565b86831015612d195784890135612d15601f891682612c25565b8355505b6001600288020188555050505b50505050505050565b7f546f6b656e20646f6573206e6f74206578697374000000000000000000000000600082015250565b6000612d656014836120fd565b9150612d7082612d2f565b602082019050919050565b60006020820190508181036000830152612d9481612d58565b9050919050565b600081905092915050565b60008154612db38161277b565b612dbd8186612d9b565b94506001821660008114612dd85760018114612ded57612e20565b60ff1983168652811515820286019350612e20565b612df685612ab3565b60005b83811015612e1857815481890152600182019150602081019050612df9565b838801955050505b50505092915050565b6000612e34826120f2565b612e3e8185612d9b565b9350612e4e81856020860161210e565b80840191505092915050565b7f2e6a736f6e000000000000000000000000000000000000000000000000000000600082015250565b6000612e90600583612d9b565b9150612e9b82612e5a565b600582019050919050565b6000612eb28285612da6565b9150612ebe8284612e29565b9150612ec982612e83565b91508190509392505050565b600081519050919050565b600082825260208201905092915050565b6000612efc82612ed5565b612f068185612ee0565b9350612f1681856020860161210e565b612f1f81612138565b840191505092915050565b6000608082019050612f3f6000830187612239565b612f4c6020830186612239565b612f5960408301856122cf565b8181036060830152612f6b8184612ef1565b905095945050505050565b600081519050612f8581612099565b92915050565b600060208284031215612fa157612fa0612063565b5b6000612faf84828501612f76565b91505092915050565b7f4e487b7100000000000000000000000000000000000000000000000000000000600052601260045260246000fd5b6000604082019050612ffc6000830185612239565b61300960208301846122cf565b939250505056fea2646970667358221220717dc704e7cf96d25dbe60b0cd3d31c4036b9ba65c17503ed77b8654bb2badc564736f6c63430008180033",
    "linkReferences": {},
    "deployedLinkReferences": {}
}